:1019D400E4F5BDF5BEE5BC54E044084FF5BC7FFA20
:1019E400E5BC30E41E53BCEFAEBDEEFD7C007E00D2
:1019F4007802C333CE33CED8F9FFE5BE5403FDEFEE
:091A04004DFF22DFDB7E047F00B0
:011A0D0022B6
:041F5A007F1ADFFE0D
:011F5E002260
:0C1EF9007F077EA87D16DDFEDEFADFF616
:011F050022B9
:0F1ECE00D293D294121F5AC293121F5AC2942257
:0C1F2000C293D294121F5AD293021F5A8F
:0E1EDD00A2019293D294121F5AC294021F5A6D
:0D1F0600D294121F5AA293C294121F5A22A5
:05000300121ECE7FA6D5
:02000800AE0741
:10000A00E4FDEE25E0FE9293D294121F5AC2941296
:09001A001F5A0DBD08EC021F067F
:101D3000E4FED293FDEE25E0FED294121F5AA29348
:0F1D4000E4334206C294121F5A0DBD08E8AF06E5
:011D4F002271
:101E0B00AC05AB07120003AF03120008AF041200BE
:041E1B0008021F207A
:021CED00AC0742
:101CEF00120003AF04120008121ECE7FA7120008C5
:0F1CFF00121D30AE07D201121EDD121F20AF06DC
:011D0E0022B2
:101A7E001200037F32120008121ECE7FA71200083A
:101A8E00E4FC121D3074FF2CF582E43402F583EF72
:101A9E00F0BC0504D2018002C201121EDD0CBC0690
:071AAE00E1121F20021EF9E6
:101C1D007D0B7F31121E0B7D0A7F2C121E0B7D0852
:101C2D007F2D121E0B7D807F2E121E0B7DFA7F1EC7
:101C3D00121E0B7DFD7F1F121E0B7D067F20021EC7
:011C4D000B8B
:08182A00450307000000000067
:081F41007FC27E54DEFEDFFAD0
:011F49002275
:041F5F007FA4DFFE7E
:011F6300225B
:0C1F1300E4FF7E05900307E4F0A3DEFC71
:011F1F00229F
:101AB500E4FDFCE4FB20910B0BEBC39422748094B2
:101AC5008140F2121F5FE4FE3091010EE4FB30917C
:101AD500070BEBC394C840F6ED25E0FDEE42050C7F
:051AE500BC08D0AF05B4
:011AEA0022D9
:1017A200C291121F41D291121F5FE4F5192091726A
:1017B200751901F516F5172091130517E517700233
:1017C2000516D3942CE516940140EC8019E4F51625
:1017D200F5173091170517E51770020516D3942CEB
:1017E200E516940140EC751A017F0022E4FA121A00
:1017F200B574072AF582E43403F583EFF00ABA05DB
:10180200ED900308E0FF900307E02FFF900309E04B
:101812002FFFA3E02FF518A3E065186008121F132D
:071822008003E4F5197F01CA
:01182900229C
:1018320020235000080010A7625BF80322F800473B
:10184200B610181D1CC700B2EA2A001159813509C9
:061852000B060405003F37
:100F7000E4FDFCC3ED9FEC9E50070DBD00010C800D
:100F8000F2E4FCFDC3ED9FEC9E50070DBD00010C8B
:100F900080F2E4FCFDC3ED9FEC9E50070DBD000107
:100FA0000C80F2E4FCFDC3ED9FEC9E50070DBD00EC
:100FB000010C80F2E4FCFDC3ED9FEC9E50070DBDDB
:100FC00000010C80F2E4FCFDC3ED9FEC9E50070D88
:100FD000BD00010C80F2E4FCFDC3ED9FEC9E5007C8
:100FE0000DBD00010C80F2E4FCFDC3ED9FEC9E50B2
:100FF000070DBD00010C80F2E4FCFDC3ED9FEC9EEB
:1010000050070DBD00010C80F2E4FCFDC3ED9FEC28
:101010009E50070DBD00010C80F2E4FCFDC3ED9F66
:10102000EC9E50070DBD00010C80F2E4FCFDC3ED09
:101030009FEC9E50070DBD00010C80F2E4FCFDC347
:10104000ED9FEC9E50070DBD00010C80F2E4FCFD0D
:10105000C3ED9FEC9E50070DBD00010C80F2E4FC37
:10106000FDC3ED9FEC9E50070DBD00010C80F2E426
:10107000FCFDC3ED9FEC9E50070DBD00010C80F2FE
:10108000E4FCFDC3ED9FEC9E50070DBD00010C80FC
:10109000F2E4FCFDC3ED9FEC9E50070DBD00010C7A
:1010A00080F2E4FCFDC3ED9FEC9E50070DBD0001F6
:1010B0000C80F2E4FCFDC3ED9FEC9E50070DBD00DB
:1010C000010C80F2E4FCFDC3ED9FEC9E50070DBDCA
:1010D00000010C80F2E4FCFDC3ED9FEC9E50070D77
:1010E000BD00010C80F2E4FCFDC3ED9FEC9E5007B7
:1010F0000DBD00010C80F2E4FCFDC3ED9FEC9E50A1
:10110000070DBD00010C80F2E4FCFDC3ED9FEC9ED9
:1011100050070DBD00010C80F2E4FCFDC3ED9FEC17
:0A1120009E50070DBD00010C80F287
:01112A0022A2
:101DAB00000000000000000000000000000000EF39
:091DBB001F70011E144E70E82295
:071F5300C2B5C297D2B5220E
:0A1F3700121F537F887E13020F7003
:101C4E00E4FEC297FDEF30E704D2958002C295EF15
:101C5E0025E0FFD2970000EE25E0FE3096010EC281
:091C6E009700000DBD08DEAF0671
:011C7700224A
:101E8E00C2B52096FD7F30121C4E2096FDD2B52293
:101D6F00D2B57F017E00121DABC2B57F017E00127E
:0E1D7F001DABD2B57F297E00121DAB021E8E59
:101E5A00AC05C2B52096FD121C4EAF04121C4ED220
:021E6A00B5229F
:061BEB008B0A8A0B890C35
:101BF100EF4440FFC2B52096FD121C4EE4FCECC33D
:101C0100950D5015AB0AAA0BA90C8C827583001295
:0B1C11000B60FF121C4E0C80E5D2B5EA
:011C1C0022A5
:0B1F2C00C2B52096FD121C4ED2B5225B
:101E1F00EF4480FFC2B52096FD121C4EE4FF121C4A
:031E2F004ED2B5DB
:011E3200228D
:061AEB008B128A1389141E
:101AF100EF44C0FFC2B52096FD121C4EE4FCECC3BE
:101B010095155017E4FF121C4EAB12AA13A9148CA1
:0D1B110082758300EF120B9F0C80E3D2B5AC
:011B1E0022A4
:101E3300EF44C0FFC2B52096FD121C4EE4FF121CF6
:031E43004ED2B5C7
:011E46002279
:10137900AD507F0C121E5AAD517F0B121E5AAD5241
:101389007F0C121E5AAD537F0D121E5AAD547F0E9B
:10139900121E5AAD557F0F121E5AAD567F10121EDE
:1013A9005AAD577F11121E5AAD587F12121E5AADEF
:1013B900597F13121E5AAD5A7F14121E5AAD5B7F04
:1013C9000A121E5AAD5C7F15121E5AAD5D7F21129D
:1013D9001E5AAD5E7F22121E5AAD5F7F18121E5A29
:1013E900AD607F19121E5AAD617F1A121E5AAD6285
:1013F9007F1B121E5AAD637F1C121E5AAD647F1DDE
:10140900121E5AAD657F23121E5AAD667F24121E25
:101419005AAD677F25121E5AAD687F26121E5AAD36
:10142900697F29121E5AAD6A7F2C121E5AAD6B7F35
:101439002D121E5AAD6C7F2E121E5AAD6DE4FF128D
:101449001E5AAD6E7F02121E5AAD6F7F07121E5AC9
:10145900AD707F08121E5AAD717F09121E5AAD7206
:051469007F06021E5A7F
:101D50008D087F3F121E5A85080D7F3F121BEB7FB7
:0F1D600035121F2C30B6FD20B6FD7F3B021F2C25
:051F64007F34021F2C78
:0615DF008B088A09890A4D
:1015E500AB0BAA0CA90D120B4725E025E0FB7F34B8
:1015F500121F2C7F027E00120F7030B6117F027E03
:1016050000120F701BEBC3940150EF7F00227F3B4C
:10161500121E33EF547F605C7F3F121E1F8F10AB8D
:101625000BAA0CA90D120B47FFE510D39F5032AB47
:1016350008AA09A90A8510157F3F121AEBAB0BAA58
:101645000CA90DE510120B8D7B007A00790E75152E
:10165500027F3F121AEB7F3A121F2CE50F5480FFD1
:1016650022AB0BAA0CA90DE510120B8D7F3A121FA8
:061675002C7F00227F0023
:01167B00224C
:081892008B088A09890A8D0BFD
:10189A0074FFF50CF50DE4FDEDC3950B503CAB0858
:1018AA00AA09A90A8D82758300120B60620DE4FCF5
:1018BA00E50D30E013E50CC313F50CE50D13F50D3A
:1018CA00630D01630CA0800BE50CC313F50CE50D49
:0E18DA0013F50D0CBC08D90D80BEAE0CAF0D81
:0118E80022DD
:101990007777772E312E636F6D007777772E322E23
:1019A000636F6D007777772E332E636F6D007777D7
:1019B000772E342E636F6D007777772E352E636F19
:1019C0006D007777772E362E636F6D000204081056
:0419D00010080402F5
:1018580008286060606060606060013100012100FC
:1018680001330102220000143C7777772E66726FED
:0D187800746563682E636F6D000000000052
:100BE500D291121D0F121DDD121C1DE4FF121CED0A
:100BF5008F24121E0175BCA07B017A007900751542
:100C0500FFE4FFFE121B1F7E197F90121E9E9000AF
:100C150050741CF0900054740EF0A37408F0E53382
:100C25007003020D24900003E0B40103E4F533E5FD
:100C350027B401EA7F01121EAEE4F532F5279000D4
:100C4500FFE0F46003020CCDA3E06430707AF53662
:100C550074012536F582E43401F583E0FF7400253F
:100C650036F582E43400F583EFF07B017A007900F4
:100C7500750DFF85360E74012536F582E43401F5D0
:100C850083E0F50FE4FFFE121A4674002536F5825F
:100C9500E43400F583E0FF74022536F582E434027E
:100CA500F583EFF00536E536C3940440A3900001C3
:100CB500E0900200F0A37430F0E4F536121DF4055F
:100CC50036E536C3940640F49000FFE0F460030275
:100CD5000C23A3E064316003020C23900001E09033
:100CE5000200F0A37431F0E4F53674002536F58280
:100CF500E43400F583E0FF74022536F582E434021E
:100D0500F583EFF00536E536B404DFE4F536E53670
:100D1500C394064003020C23121DF4053680EF90A0
:100D25000002E0B40117121F37121D6F1213797BF1
:100D3500007A007928750D087F3E121BEB7E197F1E
:100D45009A121E9E75313F900002E0640160030215
:100D55000E5775313FF50B750C00750D317B017A1A
:100D65000079FF1215DFEF7003020E577F32121E56
:100D7500AE900001E0FF9000FFE0B50717A3E0B4D7
:100D85000303120026900100E0B410087F25121E0F
:100D95000112112B9000FFE0F47076A3E06430702F
:100DA50070F53674012536F582E43401F583E0FFEC
:100DB50074002536F582E43400F583EFF0740025E0
:100DC50036F582E43400F583E0FF74022536F582BA
:100DD500E43402F583EFF07B017A007900750DFFAD
:100DE50085360E74012536F582E43401F583E0F588
:100DF5000FE4FFFE121A460536E536C3940440A3F8
:100E05009002017430F07B017A0279007D06121D93
:100E1500509000FFE0F4703AA3E064317034F53689
:100E250074002536F582E43400F583E0FF7402256D
:100E350036F582E43402F583EFF00536E536B40481
:100E4500DF9002017431F07B017A0279007D061290
:100E55001D50E52764016003020D497F03121EAE94
:100E6500E4F532F527900001E0FF9000FFE0B507BB
:100E750019A3E0B40303120026900100E0B4100AA0
:100E85007E197FA4121E9E12112B9000FFE0F460C4
:100E950003020F19A3E06430707AF5367401253624
:100EA500F582E43401F583E0FF74002536F582E42C
:100EB5003400F583EFF07B017A007900750DFF852D
:100EC500360E74012536F582E43401F583E0F50F1D
:100ED500E4FFFE121A4674002536F582E43400F567
:100EE50083E0FF74022536F582E43402F583EFF0E2
:100EF5000536E536C3940440A3900001E090020056
:100F0500F0A37430F0E4F536121DF40536E536C36A
:100F1500940640F49000FFE0F46003020D49A3E05D
:100F250064316003020D49900001E0900200F0A3D6
:100F35007431F0E4F53674002536F582E43400F5B5
:100F450083E0FF74022536F582E43402F583EFF081
:100F55000536E536B404DFE4F536E536C3940640D8
:0B0F650003020D49121DF4053680EF59
:10112B00900105E02407F5217B017A0079FFFD1280
:10113B0018928E258F26E5259001FEF0EFA3F07413
:10114B00FF2521F582E43400F583E06F6003021282
:10115B007A74002521F582E43401F583E0FF9001D8
:10116B00FEE0FEEF6E600302127A900102E0645023
:10117B007044900109E0900050F090010AE090005B
:10118B0054F090010BE0900055F0900002E0B40198
:10119B000D7B017A0079FF7D0F121D508018E4F54D
:1011AB003674FF2536F582E43400121DFD0536E555
:1011BB0036C3940F40EB900102E0644A60030212C5
:1011CB004E859037900106E064017036F538F5399D
:1011DB00900107E0FFC3E5399FE53894005023E405
:1011EB00F5369019CC121E477FF47E01121E500566
:1011FB0036E536C3940440EA0539E53970D2053833
:10120B0080CE900106E064027036F538F539900116
:10121B0007E0FFC3E5399FE53894005023E4F5362A
:10122B009019D0121E477FF47E01121E500536E531
:10123B0036C3940440EA0539E53970D2053880CEBF
:10124B00853790900102E0644870247E197FAE12BE
:10125B001E9E439202900107E0B4010A7E197FB8EB
:10126B00121E9EC291227E197FC2121E9ED2912205
:101C7800900001E0B40121900004E0D394FA4003FD
:101C88007405F0900004E0FF121EAE900004E0FF1F
:091C9800121EAE12002680EB22A0
:100026007B017A0079FF7D061218928E258F26E5D0
:10003600259001FEF0EFA3F0900105E06F6003024A
:10004600077C9001FEE0FF900106E06F6003020767
:100056007C900102E0641460030200ED1217A29086
:100066000103E0C454F0FFA3E02F25E0900202F064
:10007600E4F53674072536F582E43403F583E0FFAC
:1000860074032536F582E43402F583EFF00536E590
:1000960036B404DF900001E0900200F0A37403F090
:1000A6007B017A0279007D071218928E258F26E54C
:1000B600259001FEF0EFA3F0900207F09001FEE01C
:1000C600900208F0900002E0B4010D7B017A0279FB
:1000D600007D09121D50800FE4F536121DF4053619
:1000E600E536C3940940F4900102E0641860030207
:1000F600018AE52464E5600302018AA3E0C454F0A2
:10010600FFA3E02F25E0900202F0121A7EE4F536F6
:1001160074FF2536F582E43402F583E0FF74032587
:1001260036F582E43402F583EFF00536E536B4069B
:10013600DF900001E0900200F0A37403F07B017AE7
:100146000279007D0A1218928E258F26E5259001E8
:10015600FEF0EFA3F0900209F09001FEE090020A93
:10016600F0900002E0B4010D7B017A0279007D0B6C
:10017600121D50800FE4F536121DF40536E536C320
:10018600940B40F4900102E064287073900203F02F
:10019600A3F0900103E0C454F0FFA3E02F25E09004
:1001A6000202F02090069002047401F0900001E033
:1001B600900200F0A37403F07B017A0279007D05BA
:1001C6001218928E258F26E5259001FEF0EFA3F0FA
:1001D600900205F09001FEE0900206F0900002E029
:1001E600B4010D7B017A0279007D07121D50800F44
:1001F600E4F536121DF40536E536C3940740F4904F
:100206000102E0642A7078759D027F011219D48E6E
:10021600388F39900103E0C454F0FFA3E02F25E0A6
:10022600900202F0E538A3F0E539A3F0900001E072
:10023600900200F0A37403F07B017A0279007D0539
:100246001218928E258F26E5259001FEF0EFA3F079
:10025600900205F09001FEE0900206F0900002E0A8
:10026600B4010D7B017A0279007D07121D50800FC3
:10027600E4F536121DF40536E536C3940740F490CE
:100286000102E0642C7077759D01FF1219D48E3837
:100296008F39900103E0C454F0FFA3E02F25E090CE
:1002A6000202F0E538A3F0E539A3F0900001E090F2
:1002B6000200F0A37403F07B017A0279007D051237
:1002C60018928E258F26E5259001FEF0EFA3F0907B
:1002D6000205F09001FEE0900206F0900002E0B404
:1002E600010D7B017A0279007D07121D50800FE413
:1002F600F536121DF40536E536C3940740F4900131
:1003060002E0642E7078759D027F011219D48E3832
:100316008F39900103E0C454F0FFA3E02F25E0904D
:100326000202F0E538A3F0E539A3F0900001E09071
:100336000200F0A37403F07B017A0279007D0512B6
:1003460018928E258F26E5259001FEF0EFA3F090FA
:100356000205F09001FEE0900206F0900002E0B483
:10036600010D7B017A0279007D07121D50800FE492
:10037600F536121DF40536E536C3940740F49001B0
:1003860002E064307078759D027F011219D48E38B0
:100396008F39900001E0900200F0A37403F0900101
:1003A60003E0C454F0FFA3E02F25E0900202F0E53D
:1003B60038A3F0E539A3F07B017A0279007D0512B6
:1003C60018928E258F26E5259001FEF0EFA3F0907A
:1003D6000205F09001FEE0900206F0900002E0B403
:1003E600010D7B017A0279007D07121D50800FE412
:1003F600F536121DF40536E536C3940740F4900130
:1004060002E064327078753501E53560712090F947
:10041600E4F535900001E0900200F0A37403F0903B
:100426000103E0C454F0FFA3E02F25E0900202F0A0
:10043600E4A3F0A304F0FB7A0279007D051218927A
:100446008E258F26E5259001FEF0EFA3F09002059C
:10045600F09001FEE0900206F0900002E0B4010D7B
:100466007B017A0279007D07121D50809CE4F536E7
:10047600E536C394075092121DF4053680F29001BA
:1004860002E064347078759D027F011219D48E38AB
:100496008F39900103E0C454F0FFA3E02F25E090CC
:1004A6000202F0E538A3F0E539A3F0900001E090F0
:1004B6000200F0A37403F07B017A0279007D051235
:1004C60018928E258F26E5259001FEF0EFA3F09079
:1004D6000205F09001FEE0900206F0900002E0B402
:1004E600010D7B017A0279007D07121D50800FE411
:1004F600F536121DF40536E536C3940740F490012F
:1005060002E06436706CA3E0C454F0FFA3E02F252C
:10051600E0900202F0E4A3F0A3F020900204F09031
:100526000001E0900200F0A37403F07B017A0279E7
:10053600007D051218928E258F26E5259001FEF086
:10054600EFA3F0900205F09001FEE0900206F09015
:100556000002E0B4010D7B017A0279007D07121DCD
:1005660050800FE4F536121DF40536E536C39407C0
:1005760040F4900102E06438706CA3E0C454F0FFCC
:10058600A3E02F25E0900202F0E4A3F0A3F0209070
:100596000204F0900001E0900200F0A37403F07BE7
:1005A600017A0279007D051218928E258F26E5259F
:1005B6009001FEF0EFA3F0900205F09001FEE090AE
:1005C6000206F0900002E0B4010D7B017A02790088
:1005D6007D07121D50800FE4F536121DF40536E531
:1005E60036C3940740F4900102E0643A7078A3E0C1
:1005F600C454F0FFA3E02F25E0900202F075350108
:10060600E53560622090F9E4F535900001E090024E
:1006160000F0A37403F0E4900203F0A304F0FB7A65
:100626000279007D051218928E258F26E525900108
:10063600FEF0EFA3F0900205F09001FEE0900206B6
:10064600F0900002E0B4010D7B017A0279007D078B
:10065600121D5080ABE4F536E536C3940750A1125F
:100666001DF4053680F2900102E064407078759DB5
:10067600027F011219D48E388F39900103E0C454D9
:10068600F0FFA3E02F25E0900202F0E538A3F0E5A5
:1006960039A3F0900001E0900200F0A37403F07B10
:1006A600017A0279007D051218928E258F26E5259E
:1006B6009001FEF0EFA3F0900205F09001FEE090AD
:1006C6000206F0900002E0B4010D7B017A02790087
:1006D6007D07121D50800FE4F536121DF40536E530
:1006E60036C3940740F4900102E0644C60030207AD
:1006F6007C121CCA900103E0C454F0FFA3E02F252E
:10070600E0900202F0AF7CAE7BAD7AAC79120AC6FD
:10071600900203EFF0AF78AE77AD76AC75120AC6ED
:10072600900204EFF0900001E0900200F0A3740341
:10073600F07B017A0279007D051218928E258F26AC
:10074600E5259001FEF0EFA3F0900205F09001FE82
:10075600E0900206F0900002E0B4010B7B017A0201
:1007660079007D07021D50E4F536121DF40536E5C5
:0707760036C3940740F42292
:101DDD00438780759850438E01438E04759CB8439C
:071DED008E10D2ACD2AF2230
:0D1DF40074002536F582E43402F583E0FF2B
:0A1E0100C2008F993000FDC20022DC
:101E9E008F828E83E493FF6006121E01A380F522CB
:03002300021A0EB0
:101A0E00C0E0C083C082C0D075D000C00730981629
:101A1E00C298AF32053274FF2FF582E43400F5839D
:101A2E00E599F0752701309904C299D200D007D0FC
:081A3E00D0D082D083D0E03249
:101E6C00E4F58E758901758A67758CFCD28CD2AFBE
:011E7C002243
:0F1EAE007DDB7C1EED1D70011C144C70F7DFF105
:011EBD002202
:091E4700E53693F5907FDC7E0581
:0A1E5000EF1F70011E144E70F72200
:0E1EEB00E4F5C7F5C5F5C675C3FF75C4FF2243
:101B1F00AD07AC06C2AF75C78375C5018CC3AF05E2
:101B2F008FC475C65A75C6A500E5C2120B8D0DBDC3
:101B3F0000010C740129F9E43AFAD515DF121EEBF6
:031B4F00D2AF22F0
:101D8D00AD07AC06C2AF8CC3AF058FC475C78375E5
:0E1D9D00C50375C65A75C6A5121EEBD2AF223D
:101B5200AD07AC06C2AF75C78375C5028CC3AF05AE
:101B62008FC4120B47F5C275C65A75C6A5000DBDC6
:101B720000010C740129F9E43AFAD515DF121EEBC3
:031B8200D2AF22BD
:101A46008E088F098B0A8A0B890C850D15121B1FB0
:101A5600AB0AAA0BA90C850E82758300E50F120B43
:101A66009FAF09AE08121D8DAB0AAA0BA90C850DF6
:081A760015AF09AE08021B5276
:101D0F00439211439670C2A6C294C291C2A5C2A4B7
:101D1F00D290D2B2D285D284D283D282D281D280D3
:011D2F002291
:021940008F1BFB
:10194200E51B75F0648485F01BE51B75F00A84FFC6
:10195200D2A612167C121F4AC2A6D290D2B2D28549
:10196200D284D283D282D281121F4AE51B75F00A39
:1019720084AFF0D29412167C121F4AC294D290D233
:0E198200B2D285D284D283D282D281021F4A91
:10167C00EFB40A00400302171590168CF828287353
:10168C000216AA0216B90216BD0216C90216D80213
:10169C0016DC0216E60216EC0216FB021707C290C5
:1016AC00C2B2C285C284C283C282D28122D290804D
:1016BC0031C290C2B2D285C284C283800AC290C2A7
:1016CC00B2C285C284D283D282C28122D290802DB2
:1016DC00C290D2B2C285C2848029C290D2B2801389
:1016EC00C290C2B2C285D284D283D282D28122C2AB
:1016FC0090C2B2C285C284C283800AC290C2B2C2F6
:0A170C0085D284D283C282C28122FA
:10127B00C2A6C294EF14B40E00400302137890126E
:10128B009775F003A4C58325F0C583730212C102C1
:10129B0012CF0212DD0212EB0212F9021307021334
:1012AB001502132302133102133D02134902135586
:1012BB0002136102136DD291C2907F14121EBED223
:1012CB0090C29122D291C2B27F14121EBED2B2C270
:1012DB009122D291C2857F14121EBED285C2912259
:1012EB00D291C2847F14121EBED284C29122D2919B
:1012FB00C2837F14121EBED283C29122D291C282AC
:10130B007F14121EBED282C29122D291C2817F144F
:10131B00121EBED281C29122D2A4C2807F14121E91
:10132B00BED280C2A422D2A5C290121F4AD290C2B2
:10133B00A522D2A5C2B2121F4AD2B2C2A522D2A5F1
:10134B00C285121F4AD285C2A522D2A5C284121F02
:10135B004AD284C2A522D2A5C283121F4AD283C20B
:0E136B00A522D2A5C282121F4AD282C2A5229A
:101CA100D2A5C2907F19121EAEC2B27F19121EAE0A
:101CB100C2857F19121EAEC2847F19121EAEC2A543
:091CC100D290D2B2D285D2842265
:081F4A007FA4DFFE7FA4DFFE8F
:011F5200226C
:021EBE00AE076D
:0D1EC000E4FDEDC39E5006121F4A0D80F593
:011ECD0022F2
:0C18850004790000000004750000000061
:1018E900E4FFF57EF57DD2907E80EED39400401022
:1018F900D2A6309003EE4207C2A6EEC313FE80EAD9
:10190900C290D2A6000000C2A6D2908F7DE4FFD279
:10191900907E80EED394004010D2A6309003EE4220
:1019290007C2A6EEC313FE80EAD290D2A600000039
:06193900C2A6D2908F7ED1
:01193F002285
:101B8500E4F5747E80EED394004017EE5F6004D2D6
:101B9500908002C290D2A6000000C2A6EEC313FE3A
:101BA50080E3D290D2A6309003757401C2A6D2907C
:021BB500AF740B
:011BB700220B
:101DC400D290C2A600D2A600C29000C2A600000013
:091DD400D2A600D29000C2A622A2
:101E7D00D290C2A6E4FFD2A6C2A60FBF09F8021DDA
:011E8D00C490
:021BB800AD0777
:101BBA00121DC4121B85E5746008121E7DAF051242
:101BCA001B85900000AF82AE83E4FCFD7BEF7AD8E0
:101BDA00F9F8D3120BCF4006309003A380E702181E
:011BEA00E911
:10146E00E4F50BF50AF509F508AC7D120A92E4FBDA
:10147E00FA79807843120875C004C005C006C0070B
:10148E00AC7EE4120A92D003D002D001D000120733
:10149E00848F0B8E0A8D098C087F0A7ED77D237C64
:1014AE003CAB0BAA0AA909A808120875E4FBFA7945
:1014BE002078C21207848F0F8E0E8D0D8C0CE4FFD8
:1014CE00FEFDFCAB0FAA0EA90DA80C120A1B5009AB
:1014DE00E4F50FF50EF50DF50C7F9A7E997DF77CF0
:1014EE0042AB0FAA0EA90DA80C120A1B600E400CDF
:1014FE00750F9A750E99750DF7750C42850F7C85D3
:10150E000E7B850D7A850C79AF7CAE7BAD7AAC798E
:10151E00120AC6AD07AC06EC120A8D8F7C8E7B8D3F
:03152E007A8C793B
:011531002297
:10153200E4F50BF50AF509F508F50FF50EF50DF5CD
:101542000CAC7D120A92E4FBFA798078431208759A
:10155200C004C005C006C007AC7EE4120A92D003E4
:10156200D002D001D0001207848F0B8E0A8D098C15
:1015720008A804A905AA06AB071208757433FBFA7A
:10158200F978C01208757B007A24797478491209B7
:101592007EC004C005C006C0077F547EE37D257C63
:1015A2003DAB0BAA0AA909A808120875E4FBFA794F
:1015B2008078C0120784D003D002D001D000120775
:1015C200848F788E778D768C75120AC6AD07AC063D
:0C15D200EC120A8D8F788E778D768C7568
:0115DE0022EA
:101CCA00E4F573F574F592F596121E7D7F03121BE7
:101CDA00B812146E7F05121BB812153243921143C3
:031CEA00967022CF
:10077D00020B32E86480F8E933E83360110460F06D
:10078D00ED33EC337009E8FCE9FDEAFEEBFF2204E2
:10079D0060DED3EB9FEA9EE99DE8C2E78CF0C2F7DD
:1007AD0095F0400CE8CCF8E9CDF9EACEFAEBCFFBA9
:1007BD00120AFD85D0F05804700320D5B3E80470FB
:1007CD00075002B2D5020B3C92D5EC0460F7E4CC95
:1007DD00C0E0C398F8603B94186008400DD0E0FB72
:1007ED00020B14E4FBFAC9FC8028E830E406E4C9E6
:1007FD00FBE4CAFCE830E305E4C9CACBFCE85407C6
:10080D006010F8C3E913F9EA13FAEB13FBEC13FCD0
:10081D00D8F130F52FC3E49CFCEF9BFFEE9AFEED73
:10082D0099FDD0E0FBEF4E4D4C701222DB03020B15
:10083D0039EC2CFCEF33FFEE33FEED33FDED30E7FD
:10084D00EB020B14EF2BFFEE3AFEED39FDD0E0FB82
:10085D0050130BBB0003020B3CED13FDEE13FEEF2B
:08086D0013FFEC13FC020B1455
:10087500EC4D6011E8497017ED33EC3304600DE47D
:10088500FCFFFEFD22E933E8330470F8020B321257
:100895000AFD58046009E4CC248150062850090259
:1008A5000B3C284003020B39C0E0EB4A7044B98089
:1008B50006D0E0FB020B28EF4E701CBD8008EBFF55
:1008C500EAFEE9FD80EBE98DF0A4FEE5F002095EA4
:1008D500E9CDF9EAFEEBFFEF89F0A4FCE5F0CE895E
:1008E500F0A42EFFE435F0CD89F0A42DFEE435F01B
:1008F5008067EF4E7005BD80D780C3EF8BF0A4AC49
:10090500F0EE8BF0A42CFCE435F0F8EF8AF0A42C83
:10091500E5F038FCE433CB8DF0A42CFCE5F03BF896
:10092500EE8AF0A42CFCE5F038F8E433CF89F0A486
:100935002CFCE5F038CF3400CE89F0A42FFFE5F08C
:100945003EFEE433C98DF0A42EFEE5F039CD8AF0E4
:10095500A42FFFE5F03EFEE43DFD33D0E0FB50075C
:100965000BBB000F020B3CEC2CFCEF33FFEE33FE10
:06097500ED33FD020B143E
:10097B00020B3CEC5D046005E859047003020B327A
:10098B00120AFD580460F6EC4860F2EC7004FDFEB0
:10099B00FF22C860DB2481C85009C398600250064F
:1009AB00020B399850CAF582E9294B4A7005AB8284
:1009BB00020B2875F0007C1A7880C3EF9BEE9AED42
:1009CB0099400DC3EF9BFFEE9AFEED99FDE842F0C7
:1009DB00DC23ACF0D0E0FFD0E0FED0E0FDAB82201A
:1009EB00E7101BEB60BAEC2CFCEF33FFEE33FEEDA4
:1009FB0033FD020B14E803F830E705C0F075F00087
:100A0B00EF2FFFEE33FEED33FD40B830E7C280AA87
:100A1B0074F8CC6480CCC86480C8F582046043C38E
:100A2B00EB9FF5F0EA9E42F0E99D42F0E89C45F021
:100A3B0060305018E5825FFFE582F42B5582FB5046
:100A4B00210ABA001D09B90019088016E5825BFB63
:100A5B00E582F42F5582FF50090EBE00050DBD0037
:100A6B00010CC3EB9FF5F0EA9E42F0E99D42F0E8E2
:0D0A7B009C45F06007CC4820E701B3EC2259
:100A880075F020800E75F010800575F0087D007EE9
:100A9800007F003392D530D503120BC1EC334010E0
:100AA800EF33FFEE33FEED33FDEC33FCD5F0ED22F2
:0E0AB800E5F0247EA2D513CC92E7CDCEFF222E
:100AC600EDD2E7CD33EC3392D524814006E4FFFE28
:100AD600FDFC22FCE4CFCECDCC24E0501174FF8087
:100AE600EDC3CC13CCCD13CDCE13CECF13CF047024
:070AF600F030D5DE020BC158
:100AFD00E9D2E7C933E833F892D5EDD2E7CD33EC3F
:070B0D0033FC5002B2D522B7
:100B1400EC30E7100FBF000C0EBE00080DBD000442
:100B24000BEB6014A2D5EB13FCED92E7FD2274FFEE
:100B3400FCFDFEFF22E480F8A2D574FF13FC7D8047
:030B4400E480EF5B
:03000000021716CE
:0C171600787FE4F6D8FD75817E02175D37
:100B4700BB010689828A83E0225002E722BBFE02AC
:090B5700E32289828A83E49322DF
:100B6000BB010CE58229F582E5833AF583E022504A
:100B700006E92582F8E622BBFE06E92582F8E22294
:0D0B8000E58229F582E5833AF583E49322AE
:100B8D00BB010689828A83F0225002F722BBFE0147
:020B9D00F32241
:100B9F00F8BB010DE58229F582E5833AF583E8F08C
:100BAF00225006E92582C8F622BBFE05E92582C838
:020BBF00F22220
:0E0BC100C3E49FFFE49EFEE49DFDE49CFC2245
:100BCF00EB9FF5F0EA9E42F0E99D42F0EC6480C89D
:060BDF0064809845F0223D
:10172200020BE5E493A3F8E493A34003F68001F2ED
:1017320008DFF48029E493A3F85407240CC8C333C8
:10174200C4540F4420C8834004F456800146F6DF97
:10175200E4800B010204081020408090182AE47EE5
:10176200019360BCA3FF543F30E509541FFEE4938C
:10177200A360010ECF54C025E060A840B8E493A353
:10178200FAE493A3F8E493A3C8C582C8CAC583CA7E
:10179200F0A3C8C582C8CAC583CADFE9DEE780BE36
:011891000056
:00000001FF
